{
  "_format": "hh-sol-artifact-1",
  "contractName": "NFTContract",
  "sourceName": "contracts/NFTMinting.sol",
  "abi": [
    {
      "inputs": [
        {
          "internalType": "address",
          "name": "beneficiary",
          "type": "address"
        }
      ],
      "stateMutability": "nonpayable",
      "type": "constructor"
    },
    {
      "anonymous": false,
      "inputs": [
        {
          "indexed": true,
          "internalType": "address",
          "name": "account",
          "type": "address"
        },
        {
          "indexed": true,
          "internalType": "address",
          "name": "operator",
          "type": "address"
        },
        {
          "indexed": false,
          "internalType": "bool",
          "name": "approved",
          "type": "bool"
        }
      ],
      "name": "ApprovalForAll",
      "type": "event"
    },
    {
      "anonymous": false,
      "inputs": [
        {
          "indexed": true,
          "internalType": "address",
          "name": "_from",
          "type": "address"
        },
        {
          "indexed": false,
          "internalType": "uint256",
          "name": "time",
          "type": "uint256"
        },
        {
          "indexed": false,
          "internalType": "uint256",
          "name": "value",
          "type": "uint256"
        }
      ],
      "name": "Donation",
      "type": "event"
    },
    {
      "anonymous": false,
      "inputs": [
        {
          "indexed": true,
          "internalType": "address",
          "name": "previousOwner",
          "type": "address"
        },
        {
          "indexed": true,
          "internalType": "address",
          "name": "newOwner",
          "type": "address"
        }
      ],
      "name": "OwnershipTransferred",
      "type": "event"
    },
    {
      "anonymous": false,
      "inputs": [
        {
          "indexed": true,
          "internalType": "address",
          "name": "operator",
          "type": "address"
        },
        {
          "indexed": true,
          "internalType": "address",
          "name": "from",
          "type": "address"
        },
        {
          "indexed": true,
          "internalType": "address",
          "name": "to",
          "type": "address"
        },
        {
          "indexed": false,
          "internalType": "uint256[]",
          "name": "ids",
          "type": "uint256[]"
        },
        {
          "indexed": false,
          "internalType": "uint256[]",
          "name": "values",
          "type": "uint256[]"
        }
      ],
      "name": "TransferBatch",
      "type": "event"
    },
    {
      "anonymous": false,
      "inputs": [
        {
          "indexed": true,
          "internalType": "address",
          "name": "operator",
          "type": "address"
        },
        {
          "indexed": true,
          "internalType": "address",
          "name": "from",
          "type": "address"
        },
        {
          "indexed": true,
          "internalType": "address",
          "name": "to",
          "type": "address"
        },
        {
          "indexed": false,
          "internalType": "uint256",
          "name": "id",
          "type": "uint256"
        },
        {
          "indexed": false,
          "internalType": "uint256",
          "name": "value",
          "type": "uint256"
        }
      ],
      "name": "TransferSingle",
      "type": "event"
    },
    {
      "anonymous": false,
      "inputs": [
        {
          "indexed": false,
          "internalType": "string",
          "name": "value",
          "type": "string"
        },
        {
          "indexed": true,
          "internalType": "uint256",
          "name": "id",
          "type": "uint256"
        }
      ],
      "name": "URI",
      "type": "event"
    },
    {
      "inputs": [],
      "name": "NFT0",
      "outputs": [
        {
          "internalType": "uint256",
          "name": "",
          "type": "uint256"
        }
      ],
      "stateMutability": "view",
      "type": "function"
    },
    {
      "inputs": [],
      "name": "NFT1",
      "outputs": [
        {
          "internalType": "uint256",
          "name": "",
          "type": "uint256"
        }
      ],
      "stateMutability": "view",
      "type": "function"
    },
    {
      "inputs": [],
      "name": "NFT2",
      "outputs": [
        {
          "internalType": "uint256",
          "name": "",
          "type": "uint256"
        }
      ],
      "stateMutability": "view",
      "type": "function"
    },
    {
      "inputs": [
        {
          "internalType": "address",
          "name": "account",
          "type": "address"
        },
        {
          "internalType": "uint256",
          "name": "id",
          "type": "uint256"
        }
      ],
      "name": "balanceOf",
      "outputs": [
        {
          "internalType": "uint256",
          "name": "",
          "type": "uint256"
        }
      ],
      "stateMutability": "view",
      "type": "function"
    },
    {
      "inputs": [
        {
          "internalType": "address[]",
          "name": "accounts",
          "type": "address[]"
        },
        {
          "internalType": "uint256[]",
          "name": "ids",
          "type": "uint256[]"
        }
      ],
      "name": "balanceOfBatch",
      "outputs": [
        {
          "internalType": "uint256[]",
          "name": "",
          "type": "uint256[]"
        }
      ],
      "stateMutability": "view",
      "type": "function"
    },
    {
      "inputs": [
        {
          "internalType": "uint256",
          "name": "id",
          "type": "uint256"
        }
      ],
      "name": "exists",
      "outputs": [
        {
          "internalType": "bool",
          "name": "",
          "type": "bool"
        }
      ],
      "stateMutability": "view",
      "type": "function"
    },
    {
      "inputs": [],
      "name": "getDonators",
      "outputs": [
        {
          "components": [
            {
              "internalType": "address",
              "name": "donatorAddresses",
              "type": "address"
            },
            {
              "internalType": "uint256",
              "name": "valueSent",
              "type": "uint256"
            }
          ],
          "internalType": "struct NFTContract.Donator[]",
          "name": "",
          "type": "tuple[]"
        }
      ],
      "stateMutability": "view",
      "type": "function"
    },
    {
      "inputs": [
        {
          "internalType": "address",
          "name": "account",
          "type": "address"
        },
        {
          "internalType": "address",
          "name": "operator",
          "type": "address"
        }
      ],
      "name": "isApprovedForAll",
      "outputs": [
        {
          "internalType": "bool",
          "name": "",
          "type": "bool"
        }
      ],
      "stateMutability": "view",
      "type": "function"
    },
    {
      "inputs": [],
      "name": "mint",
      "outputs": [],
      "stateMutability": "payable",
      "type": "function"
    },
    {
      "inputs": [
        {
          "internalType": "address",
          "name": "to",
          "type": "address"
        },
        {
          "internalType": "uint256[]",
          "name": "ids",
          "type": "uint256[]"
        },
        {
          "internalType": "uint256[]",
          "name": "amounts",
          "type": "uint256[]"
        },
        {
          "internalType": "bytes",
          "name": "data",
          "type": "bytes"
        }
      ],
      "name": "mintBatch",
      "outputs": [],
      "stateMutability": "nonpayable",
      "type": "function"
    },
    {
      "inputs": [],
      "name": "owner",
      "outputs": [
        {
          "internalType": "address",
          "name": "",
          "type": "address"
        }
      ],
      "stateMutability": "view",
      "type": "function"
    },
    {
      "inputs": [],
      "name": "renounceOwnership",
      "outputs": [],
      "stateMutability": "nonpayable",
      "type": "function"
    },
    {
      "inputs": [
        {
          "internalType": "address",
          "name": "from",
          "type": "address"
        },
        {
          "internalType": "address",
          "name": "to",
          "type": "address"
        },
        {
          "internalType": "uint256[]",
          "name": "ids",
          "type": "uint256[]"
        },
        {
          "internalType": "uint256[]",
          "name": "amounts",
          "type": "uint256[]"
        },
        {
          "internalType": "bytes",
          "name": "data",
          "type": "bytes"
        }
      ],
      "name": "safeBatchTransferFrom",
      "outputs": [],
      "stateMutability": "nonpayable",
      "type": "function"
    },
    {
      "inputs": [
        {
          "internalType": "address",
          "name": "from",
          "type": "address"
        },
        {
          "internalType": "address",
          "name": "to",
          "type": "address"
        },
        {
          "internalType": "uint256",
          "name": "id",
          "type": "uint256"
        },
        {
          "internalType": "uint256",
          "name": "amount",
          "type": "uint256"
        },
        {
          "internalType": "bytes",
          "name": "data",
          "type": "bytes"
        }
      ],
      "name": "safeTransferFrom",
      "outputs": [],
      "stateMutability": "nonpayable",
      "type": "function"
    },
    {
      "inputs": [
        {
          "internalType": "address",
          "name": "operator",
          "type": "address"
        },
        {
          "internalType": "bool",
          "name": "approved",
          "type": "bool"
        }
      ],
      "name": "setApprovalForAll",
      "outputs": [],
      "stateMutability": "nonpayable",
      "type": "function"
    },
    {
      "inputs": [
        {
          "internalType": "string",
          "name": "newuri",
          "type": "string"
        }
      ],
      "name": "setURI",
      "outputs": [],
      "stateMutability": "nonpayable",
      "type": "function"
    },
    {
      "inputs": [
        {
          "internalType": "bytes4",
          "name": "interfaceId",
          "type": "bytes4"
        }
      ],
      "name": "supportsInterface",
      "outputs": [
        {
          "internalType": "bool",
          "name": "",
          "type": "bool"
        }
      ],
      "stateMutability": "view",
      "type": "function"
    },
    {
      "inputs": [],
      "name": "totalRaised",
      "outputs": [
        {
          "internalType": "uint256",
          "name": "",
          "type": "uint256"
        }
      ],
      "stateMutability": "view",
      "type": "function"
    },
    {
      "inputs": [
        {
          "internalType": "uint256",
          "name": "id",
          "type": "uint256"
        }
      ],
      "name": "totalSupply",
      "outputs": [
        {
          "internalType": "uint256",
          "name": "",
          "type": "uint256"
        }
      ],
      "stateMutability": "view",
      "type": "function"
    },
    {
      "inputs": [
        {
          "internalType": "address",
          "name": "newOwner",
          "type": "address"
        }
      ],
      "name": "transferOwnership",
      "outputs": [],
      "stateMutability": "nonpayable",
      "type": "function"
    },
    {
      "inputs": [
        {
          "internalType": "uint256",
          "name": "_id",
          "type": "uint256"
        }
      ],
      "name": "uri",
      "outputs": [
        {
          "internalType": "string",
          "name": "",
          "type": "string"
        }
      ],
      "stateMutability": "view",
      "type": "function"
    },
    {
      "inputs": [],
      "name": "withdraw",
      "outputs": [],
      "stateMutability": "nonpayable",
      "type": "function"
    }
  ],
  "bytecode": "0x608060405260006006553480156200001657600080fd5b50604051620045db380380620045db83398181016040528101906200003c919062000281565b604051806060016040528060368152602001620045a5603691396200006781620000d060201b60201c565b50620000886200007c620000ec60201b60201c565b620000f460201b60201c565b80600560006101000a81548173ffffffffffffffffffffffffffffffffffffffff021916908373ffffffffffffffffffffffffffffffffffffffff1602179055505062000360565b8060029080519060200190620000e8929190620001ba565b5050565b600033905090565b6000600360009054906101000a900473ffffffffffffffffffffffffffffffffffffffff16905081600360006101000a81548173ffffffffffffffffffffffffffffffffffffffff021916908373ffffffffffffffffffffffffffffffffffffffff1602179055508173ffffffffffffffffffffffffffffffffffffffff168173ffffffffffffffffffffffffffffffffffffffff167f8be0079c531659141344cd1fd0a4f28419497f9722a3daafe3b4186f6b6457e060405160405180910390a35050565b828054620001c890620002e1565b90600052602060002090601f016020900481019282620001ec576000855562000238565b82601f106200020757805160ff191683800117855562000238565b8280016001018555821562000238579182015b82811115620002375782518255916020019190600101906200021a565b5b5090506200024791906200024b565b5090565b5b80821115620002665760008160009055506001016200024c565b5090565b6000815190506200027b8162000346565b92915050565b6000602082840312156200029457600080fd5b6000620002a4848285016200026a565b91505092915050565b6000620002ba82620002c1565b9050919050565b600073ffffffffffffffffffffffffffffffffffffffff82169050919050565b60006002820490506001821680620002fa57607f821691505b6020821081141562000311576200031062000317565b5b50919050565b7f4e487b7100000000000000000000000000000000000000000000000000000000600052602260045260246000fd5b6200035181620002ad565b81146200035d57600080fd5b50565b61423580620003706000396000f3fe6080604052600436106101345760003560e01c8063715018a6116100ab578063c5c4744c1161006f578063c5c4744c14610404578063e985e9c51461042f578063efba72d51461046c578063f242432a14610497578063f2fde38b146104c0578063ff4e6116146104e957610134565b8063715018a6146103315780638da5cb5b14610348578063a22cb46514610373578063bd85b0391461039c578063bf1482fa146103d957610134565b80631f7fdffa116100fd5780631f7fdffa146102235780632eb2c2d61461024c57806333a04a17146102755780633ccfd60b146102a05780634e1273f4146102b75780634f558e79146102f457610134565b8062fdd58e1461013957806301ffc9a71461017657806302fe5305146101b35780630e89341c146101dc5780631249c58b14610219575b600080fd5b34801561014557600080fd5b50610160600480360381019061015b9190612d9a565b610514565b60405161016d919061371e565b60405180910390f35b34801561018257600080fd5b5061019d60048036038101906101989190612e42565b6105dd565b6040516101aa91906134e1565b60405180910390f35b3480156101bf57600080fd5b506101da60048036038101906101d59190612e94565b6106bf565b005b3480156101e857600080fd5b5061020360048036038101906101fe9190612ed5565b610747565b60405161021091906134fc565b60405180910390f35b6102216107ca565b005b34801561022f57600080fd5b5061024a60048036038101906102459190612cb3565b6109b6565b005b34801561025857600080fd5b50610273600480360381019061026e9190612b65565b610a44565b005b34801561028157600080fd5b5061028a610ae5565b604051610297919061371e565b60405180910390f35b3480156102ac57600080fd5b506102b5610aea565b005b3480156102c357600080fd5b506102de60048036038101906102d99190612dd6565b610bd7565b6040516102eb9190613488565b60405180910390f35b34801561030057600080fd5b5061031b60048036038101906103169190612ed5565b610d88565b60405161032891906134e1565b60405180910390f35b34801561033d57600080fd5b50610346610d9c565b005b34801561035457600080fd5b5061035d610e24565b60405161036a9190613389565b60405180910390f35b34801561037f57600080fd5b5061039a60048036038101906103959190612d5e565b610e4e565b005b3480156103a857600080fd5b506103c360048036038101906103be9190612ed5565b610e64565b6040516103d0919061371e565b60405180910390f35b3480156103e557600080fd5b506103ee610e81565b6040516103fb9190613466565b60405180910390f35b34801561041057600080fd5b50610419610f40565b604051610426919061371e565b60405180910390f35b34801561043b57600080fd5b5061045660048036038101906104519190612b29565b610f46565b60405161046391906134e1565b60405180910390f35b34801561047857600080fd5b50610481610fda565b60405161048e919061371e565b60405180910390f35b3480156104a357600080fd5b506104be60048036038101906104b99190612c24565b610fdf565b005b3480156104cc57600080fd5b506104e760048036038101906104e29190612b00565b611080565b005b3480156104f557600080fd5b506104fe611178565b60405161050b919061371e565b60405180910390f35b60008073ffffffffffffffffffffffffffffffffffffffff168373ffffffffffffffffffffffffffffffffffffffff161415610585576040517f08c379a000000000000000000000000000000000000000000000000000000000815260040161057c9061355e565b60405180910390fd5b60008083815260200190815260200160002060008473ffffffffffffffffffffffffffffffffffffffff1673ffffffffffffffffffffffffffffffffffffffff16815260200190815260200160002054905092915050565b60007fd9b67a26000000000000000000000000000000000000000000000000000000007bffffffffffffffffffffffffffffffffffffffffffffffffffffffff1916827bffffffffffffffffffffffffffffffffffffffffffffffffffffffff191614806106a857507f0e89341c000000000000000000000000000000000000000000000000000000007bffffffffffffffffffffffffffffffffffffffffffffffffffffffff1916827bffffffffffffffffffffffffffffffffffffffffffffffffffffffff1916145b806106b857506106b78261117d565b5b9050919050565b6106c76111e7565b73ffffffffffffffffffffffffffffffffffffffff166106e5610e24565b73ffffffffffffffffffffffffffffffffffffffff161461073b576040517f08c379a00000000000000000000000000000000000000000000000000000000081526004016107329061363e565b60405180910390fd5b610744816111ef565b50565b606061075282610d88565b610791576040517f08c379a00000000000000000000000000000000000000000000000000000000081526004016107889061367e565b60405180910390fd5b61079a82611209565b6107a38361129d565b6040516020016107b492919061335a565b6040516020818303038152906040529050919050565b662386f26fc10000341015610814576040517f08c379a000000000000000000000000000000000000000000000000000000000815260040161080b9061359e565b60405180910390fd5b662386f26fc100003414156108415761084033600060016040518060200160405280600081525061144a565b5b6706f05b59d3b2000034141561086e5761086d336001806040518060200160405280600081525061144a565b5b670de0b6b3a764000034141561089c5761089b33600260016040518060200160405280600081525061144a565b5b34600660008282546108ae91906138f6565b925050819055503373ffffffffffffffffffffffffffffffffffffffff167f106aac375bbcf013d1e52338bbf9e740009a1a3a6869f8daa1b72aa1620f5fec42346040516108fd929190613739565b60405180910390a2600060405180604001604052803373ffffffffffffffffffffffffffffffffffffffff168152602001348152509050600781908060018154018082558091505060019003906000526020600020906002020160009091909190915060008201518160000160006101000a81548173ffffffffffffffffffffffffffffffffffffffff021916908373ffffffffffffffffffffffffffffffffffffffff16021790555060208201518160010155505050565b6109be6111e7565b73ffffffffffffffffffffffffffffffffffffffff166109dc610e24565b73ffffffffffffffffffffffffffffffffffffffff1614610a32576040517f08c379a0000000000000000000000000000000000000000000000000000000008152600401610a299061363e565b60405180910390fd5b610a3e848484846115fb565b50505050565b610a4c6111e7565b73ffffffffffffffffffffffffffffffffffffffff168573ffffffffffffffffffffffffffffffffffffffff161480610a925750610a9185610a8c6111e7565b610f46565b5b610ad1576040517f08c379a0000000000000000000000000000000000000000000000000000000008152600401610ac8906135fe565b60405180910390fd5b610ade8585858585611874565b5050505050565b600281565b610af26111e7565b73ffffffffffffffffffffffffffffffffffffffff16610b10610e24565b73ffffffffffffffffffffffffffffffffffffffff1614610b66576040517f08c379a0000000000000000000000000000000000000000000000000000000008152600401610b5d9061363e565b60405180910390fd5b6000479050600560009054906101000a900473ffffffffffffffffffffffffffffffffffffffff1673ffffffffffffffffffffffffffffffffffffffff166108fc829081150290604051600060405180830381858888f19350505050158015610bd3573d6000803e3d6000fd5b5050565b60608151835114610c1d576040517f08c379a0000000000000000000000000000000000000000000000000000000008152600401610c14906136be565b60405180910390fd5b6000835167ffffffffffffffff811115610c60577f4e487b7100000000000000000000000000000000000000000000000000000000600052604160045260246000fd5b604051908082528060200260200182016040528015610c8e5781602001602082028036833780820191505090505b50905060005b8451811015610d7d57610d27858281518110610cd9577f4e487b7100000000000000000000000000000000000000000000000000000000600052603260045260246000fd5b6020026020010151858381518110610d1a577f4e487b7100000000000000000000000000000000000000000000000000000000600052603260045260246000fd5b6020026020010151610514565b828281518110610d60577f4e487b7100000000000000000000000000000000000000000000000000000000600052603260045260246000fd5b60200260200101818152505080610d7690613aca565b9050610c94565b508091505092915050565b600080610d9483610e64565b119050919050565b610da46111e7565b73ffffffffffffffffffffffffffffffffffffffff16610dc2610e24565b73ffffffffffffffffffffffffffffffffffffffff1614610e18576040517f08c379a0000000000000000000000000000000000000000000000000000000008152600401610e0f9061363e565b60405180910390fd5b610e226000611be2565b565b6000600360009054906101000a900473ffffffffffffffffffffffffffffffffffffffff16905090565b610e60610e596111e7565b8383611ca8565b5050565b600060046000838152602001908152602001600020549050919050565b60606007805480602002602001604051908101604052809291908181526020016000905b82821015610f3757838290600052602060002090600202016040518060400160405290816000820160009054906101000a900473ffffffffffffffffffffffffffffffffffffffff1673ffffffffffffffffffffffffffffffffffffffff1673ffffffffffffffffffffffffffffffffffffffff16815260200160018201548152505081526020019060010190610ea5565b50505050905090565b60065481565b6000600160008473ffffffffffffffffffffffffffffffffffffffff1673ffffffffffffffffffffffffffffffffffffffff16815260200190815260200160002060008373ffffffffffffffffffffffffffffffffffffffff1673ffffffffffffffffffffffffffffffffffffffff16815260200190815260200160002060009054906101000a900460ff16905092915050565b600181565b610fe76111e7565b73ffffffffffffffffffffffffffffffffffffffff168573ffffffffffffffffffffffffffffffffffffffff16148061102d575061102c856110276111e7565b610f46565b5b61106c576040517f08c379a0000000000000000000000000000000000000000000000000000000008152600401611063906135be565b60405180910390fd5b6110798585858585611e15565b5050505050565b6110886111e7565b73ffffffffffffffffffffffffffffffffffffffff166110a6610e24565b73ffffffffffffffffffffffffffffffffffffffff16146110fc576040517f08c379a00000000000000000000000000000000000000000000000000000000081526004016110f39061363e565b60405180910390fd5b600073ffffffffffffffffffffffffffffffffffffffff168173ffffffffffffffffffffffffffffffffffffffff16141561116c576040517f08c379a00000000000000000000000000000000000000000000000000000000081526004016111639061357e565b60405180910390fd5b61117581611be2565b50565b600081565b60007f01ffc9a7000000000000000000000000000000000000000000000000000000007bffffffffffffffffffffffffffffffffffffffffffffffffffffffff1916827bffffffffffffffffffffffffffffffffffffffffffffffffffffffff1916149050919050565b600033905090565b80600290805190602001906112059291906127f8565b5050565b60606002805461121890613a67565b80601f016020809104026020016040519081016040528092919081815260200182805461124490613a67565b80156112915780601f1061126657610100808354040283529160200191611291565b820191906000526020600020905b81548152906001019060200180831161127457829003601f168201915b50505050509050919050565b606060008214156112e5576040518060400160405280600181526020017f30000000000000000000000000000000000000000000000000000000000000008152509050611445565b600082905060005b6000821461131757808061130090613aca565b915050600a82611310919061394c565b91506112ed565b60008167ffffffffffffffff811115611359577f4e487b7100000000000000000000000000000000000000000000000000000000600052604160045260246000fd5b6040519080825280601f01601f19166020018201604052801561138b5781602001600182028036833780820191505090505b5090505b6000851461143e576001826113a4919061397d565b9150600a856113b39190613b13565b60306113bf91906138f6565b60f81b8183815181106113fb577f4e487b7100000000000000000000000000000000000000000000000000000000600052603260045260246000fd5b60200101907effffffffffffffffffffffffffffffffffffffffffffffffffffffffffffff1916908160001a905350600a85611437919061394c565b945061138f565b8093505050505b919050565b600073ffffffffffffffffffffffffffffffffffffffff168473ffffffffffffffffffffffffffffffffffffffff1614156114ba576040517f08c379a00000000000000000000000000000000000000000000000000000000081526004016114b1906136fe565b60405180910390fd5b60006114c46111e7565b905060006114d1856120b1565b905060006114de856120b1565b90506114ef83600089858589612177565b8460008088815260200190815260200160002060008973ffffffffffffffffffffffffffffffffffffffff1673ffffffffffffffffffffffffffffffffffffffff168152602001908152602001600020600082825461154e91906138f6565b925050819055508673ffffffffffffffffffffffffffffffffffffffff16600073ffffffffffffffffffffffffffffffffffffffff168473ffffffffffffffffffffffffffffffffffffffff167fc3d58168c5ae7397731d063d5bbf3d657854427343f4c083240f7aacaa2d0f6289896040516115cc929190613739565b60405180910390a46115e38360008985858961218d565b6115f283600089898989612195565b50505050505050565b600073ffffffffffffffffffffffffffffffffffffffff168473ffffffffffffffffffffffffffffffffffffffff16141561166b576040517f08c379a0000000000000000000000000000000000000000000000000000000008152600401611662906136fe565b60405180910390fd5b81518351146116af576040517f08c379a00000000000000000000000000000000000000000000000000000000081526004016116a6906136de565b60405180910390fd5b60006116b96111e7565b90506116ca81600087878787612177565b60005b84518110156117cf5783818151811061170f577f4e487b7100000000000000000000000000000000000000000000000000000000600052603260045260246000fd5b6020026020010151600080878481518110611753577f4e487b7100000000000000000000000000000000000000000000000000000000600052603260045260246000fd5b6020026020010151815260200190815260200160002060008873ffffffffffffffffffffffffffffffffffffffff1673ffffffffffffffffffffffffffffffffffffffff16815260200190815260200160002060008282546117b591906138f6565b9250508190555080806117c790613aca565b9150506116cd565b508473ffffffffffffffffffffffffffffffffffffffff16600073ffffffffffffffffffffffffffffffffffffffff168273ffffffffffffffffffffffffffffffffffffffff167f4a39dc06d4c0dbc64b70af90fd698a233a518aa5d07e595d983b8c0526c8f7fb87876040516118479291906134aa565b60405180910390a461185e8160008787878761218d565b61186d8160008787878761237c565b5050505050565b81518351146118b8576040517f08c379a00000000000000000000000000000000000000000000000000000000081526004016118af906136de565b60405180910390fd5b600073ffffffffffffffffffffffffffffffffffffffff168473ffffffffffffffffffffffffffffffffffffffff161415611928576040517f08c379a000000000000000000000000000000000000000000000000000000000815260040161191f906135de565b60405180910390fd5b60006119326111e7565b9050611942818787878787612177565b60005b8451811015611b3f576000858281518110611989577f4e487b7100000000000000000000000000000000000000000000000000000000600052603260045260246000fd5b6020026020010151905060008583815181106119ce577f4e487b7100000000000000000000000000000000000000000000000000000000600052603260045260246000fd5b60200260200101519050600080600084815260200190815260200160002060008b73ffffffffffffffffffffffffffffffffffffffff1673ffffffffffffffffffffffffffffffffffffffff16815260200190815260200160002054905081811015611a6f576040517f08c379a0000000000000000000000000000000000000000000000000000000008152600401611a669061361e565b60405180910390fd5b81810360008085815260200190815260200160002060008c73ffffffffffffffffffffffffffffffffffffffff1673ffffffffffffffffffffffffffffffffffffffff168152602001908152602001600020819055508160008085815260200190815260200160002060008b73ffffffffffffffffffffffffffffffffffffffff1673ffffffffffffffffffffffffffffffffffffffff1681526020019081526020016000206000828254611b2491906138f6565b9250508190555050505080611b3890613aca565b9050611945565b508473ffffffffffffffffffffffffffffffffffffffff168673ffffffffffffffffffffffffffffffffffffffff168273ffffffffffffffffffffffffffffffffffffffff167f4a39dc06d4c0dbc64b70af90fd698a233a518aa5d07e595d983b8c0526c8f7fb8787604051611bb69291906134aa565b60405180910390a4611bcc81878787878761218d565b611bda81878787878761237c565b505050505050565b6000600360009054906101000a900473ffffffffffffffffffffffffffffffffffffffff16905081600360006101000a81548173ffffffffffffffffffffffffffffffffffffffff021916908373ffffffffffffffffffffffffffffffffffffffff1602179055508173ffffffffffffffffffffffffffffffffffffffff168173ffffffffffffffffffffffffffffffffffffffff167f8be0079c531659141344cd1fd0a4f28419497f9722a3daafe3b4186f6b6457e060405160405180910390a35050565b8173ffffffffffffffffffffffffffffffffffffffff168373ffffffffffffffffffffffffffffffffffffffff161415611d17576040517f08c379a0000000000000000000000000000000000000000000000000000000008152600401611d0e9061369e565b60405180910390fd5b80600160008573ffffffffffffffffffffffffffffffffffffffff1673ffffffffffffffffffffffffffffffffffffffff16815260200190815260200160002060008473ffffffffffffffffffffffffffffffffffffffff1673ffffffffffffffffffffffffffffffffffffffff16815260200190815260200160002060006101000a81548160ff0219169083151502179055508173ffffffffffffffffffffffffffffffffffffffff168373ffffffffffffffffffffffffffffffffffffffff167f17307eab39ab6107e8899845ad3d59bd9653f200f220920489ca2b5937696c3183604051611e0891906134e1565b60405180910390a3505050565b600073ffffffffffffffffffffffffffffffffffffffff168473ffffffffffffffffffffffffffffffffffffffff161415611e85576040517f08c379a0000000000000000000000000000000000000000000000000000000008152600401611e7c906135de565b60405180910390fd5b6000611e8f6111e7565b90506000611e9c856120b1565b90506000611ea9856120b1565b9050611eb9838989858589612177565b600080600088815260200190815260200160002060008a73ffffffffffffffffffffffffffffffffffffffff1673ffffffffffffffffffffffffffffffffffffffff16815260200190815260200160002054905085811015611f50576040517f08c379a0000000000000000000000000000000000000000000000000000000008152600401611f479061361e565b60405180910390fd5b85810360008089815260200190815260200160002060008b73ffffffffffffffffffffffffffffffffffffffff1673ffffffffffffffffffffffffffffffffffffffff168152602001908152602001600020819055508560008089815260200190815260200160002060008a73ffffffffffffffffffffffffffffffffffffffff1673ffffffffffffffffffffffffffffffffffffffff168152602001908152602001600020600082825461200591906138f6565b925050819055508773ffffffffffffffffffffffffffffffffffffffff168973ffffffffffffffffffffffffffffffffffffffff168573ffffffffffffffffffffffffffffffffffffffff167fc3d58168c5ae7397731d063d5bbf3d657854427343f4c083240f7aacaa2d0f628a8a604051612082929190613739565b60405180910390a4612098848a8a86868a61218d565b6120a6848a8a8a8a8a612195565b505050505050505050565b60606000600167ffffffffffffffff8111156120f6577f4e487b7100000000000000000000000000000000000000000000000000000000600052604160045260246000fd5b6040519080825280602002602001820160405280156121245781602001602082028036833780820191505090505b5090508281600081518110612162577f4e487b7100000000000000000000000000000000000000000000000000000000600052603260045260246000fd5b60200260200101818152505080915050919050565b612185868686868686612563565b505050505050565b505050505050565b6121b48473ffffffffffffffffffffffffffffffffffffffff166127cd565b15612374578373ffffffffffffffffffffffffffffffffffffffff1663f23a6e6187878686866040518663ffffffff1660e01b81526004016121fa95949392919061340c565b602060405180830381600087803b15801561221457600080fd5b505af192505050801561224557506040513d601f19601f820116820180604052508101906122429190612e6b565b60015b6122eb57612251613c00565b806308c379a014156122ae575061226661410d565b8061227157506122b0565b806040517f08c379a00000000000000000000000000000000000000000000000000000000081526004016122a591906134fc565b60405180910390fd5b505b6040517f08c379a00000000000000000000000000000000000000000000000000000000081526004016122e29061351e565b60405180910390fd5b63f23a6e6160e01b7bffffffffffffffffffffffffffffffffffffffffffffffffffffffff1916817bffffffffffffffffffffffffffffffffffffffffffffffffffffffff191614612372576040517f08c379a00000000000000000000000000000000000000000000000000000000081526004016123699061353e565b60405180910390fd5b505b505050505050565b61239b8473ffffffffffffffffffffffffffffffffffffffff166127cd565b1561255b578373ffffffffffffffffffffffffffffffffffffffff1663bc197c8187878686866040518663ffffffff1660e01b81526004016123e19594939291906133a4565b602060405180830381600087803b1580156123fb57600080fd5b505af192505050801561242c57506040513d601f19601f820116820180604052508101906124299190612e6b565b60015b6124d257612438613c00565b806308c379a01415612495575061244d61410d565b806124585750612497565b806040517f08c379a000000000000000000000000000000000000000000000000000000000815260040161248c91906134fc565b60405180910390fd5b505b6040517f08c379a00000000000000000000000000000000000000000000000000000000081526004016124c99061351e565b60405180910390fd5b63bc197c8160e01b7bffffffffffffffffffffffffffffffffffffffffffffffffffffffff1916817bffffffffffffffffffffffffffffffffffffffffffffffffffffffff191614612559576040517f08c379a00000000000000000000000000000000000000000000000000000000081526004016125509061353e565b60405180910390fd5b505b505050505050565b6125718686868686866127f0565b600073ffffffffffffffffffffffffffffffffffffffff168573ffffffffffffffffffffffffffffffffffffffff16141561266f5760005b835181101561266d578281815181106125eb577f4e487b7100000000000000000000000000000000000000000000000000000000600052603260045260246000fd5b602002602001015160046000868481518110612630577f4e487b7100000000000000000000000000000000000000000000000000000000600052603260045260246000fd5b60200260200101518152602001908152602001600020600082825461265591906138f6565b925050819055508061266690613aca565b90506125a9565b505b600073ffffffffffffffffffffffffffffffffffffffff168473ffffffffffffffffffffffffffffffffffffffff1614156127c55760005b83518110156127c35760008482815181106126eb577f4e487b7100000000000000000000000000000000000000000000000000000000600052603260045260246000fd5b602002602001015190506000848381518110612730577f4e487b7100000000000000000000000000000000000000000000000000000000600052603260045260246000fd5b6020026020010151905060006004600084815260200190815260200160002054905081811015612795576040517f08c379a000000000000000000000000000000000000000000000000000000000815260040161278c9061365e565b60405180910390fd5b8181036004600085815260200190815260200160002081905550505050806127bc90613aca565b90506126a7565b505b505050505050565b6000808273ffffffffffffffffffffffffffffffffffffffff163b119050919050565b505050505050565b82805461280490613a67565b90600052602060002090601f016020900481019282612826576000855561286d565b82601f1061283f57805160ff191683800117855561286d565b8280016001018555821561286d579182015b8281111561286c578251825591602001919060010190612851565b5b50905061287a919061287e565b5090565b5b8082111561289757600081600090555060010161287f565b5090565b60006128ae6128a984613787565b613762565b905080838252602082019050828560208602820111156128cd57600080fd5b60005b858110156128fd57816128e388826129ef565b8452602084019350602083019250506001810190506128d0565b5050509392505050565b600061291a612915846137b3565b613762565b9050808382526020820190508285602086028201111561293957600080fd5b60005b85811015612969578161294f8882612aeb565b84526020840193506020830192505060018101905061293c565b5050509392505050565b6000612986612981846137df565b613762565b90508281526020810184848401111561299e57600080fd5b6129a9848285613a25565b509392505050565b60006129c46129bf84613810565b613762565b9050828152602081018484840111156129dc57600080fd5b6129e7848285613a25565b509392505050565b6000813590506129fe816141a3565b92915050565b600082601f830112612a1557600080fd5b8135612a2584826020860161289b565b91505092915050565b600082601f830112612a3f57600080fd5b8135612a4f848260208601612907565b91505092915050565b600081359050612a67816141ba565b92915050565b600081359050612a7c816141d1565b92915050565b600081519050612a91816141d1565b92915050565b600082601f830112612aa857600080fd5b8135612ab8848260208601612973565b91505092915050565b600082601f830112612ad257600080fd5b8135612ae28482602086016129b1565b91505092915050565b600081359050612afa816141e8565b92915050565b600060208284031215612b1257600080fd5b6000612b20848285016129ef565b91505092915050565b60008060408385031215612b3c57600080fd5b6000612b4a858286016129ef565b9250506020612b5b858286016129ef565b9150509250929050565b600080600080600060a08688031215612b7d57600080fd5b6000612b8b888289016129ef565b9550506020612b9c888289016129ef565b945050604086013567ffffffffffffffff811115612bb957600080fd5b612bc588828901612a2e565b935050606086013567ffffffffffffffff811115612be257600080fd5b612bee88828901612a2e565b925050608086013567ffffffffffffffff811115612c0b57600080fd5b612c1788828901612a97565b9150509295509295909350565b600080600080600060a08688031215612c3c57600080fd5b6000612c4a888289016129ef565b9550506020612c5b888289016129ef565b9450506040612c6c88828901612aeb565b9350506060612c7d88828901612aeb565b925050608086013567ffffffffffffffff811115612c9a57600080fd5b612ca688828901612a97565b9150509295509295909350565b60008060008060808587031215612cc957600080fd5b6000612cd7878288016129ef565b945050602085013567ffffffffffffffff811115612cf457600080fd5b612d0087828801612a2e565b935050604085013567ffffffffffffffff811115612d1d57600080fd5b612d2987828801612a2e565b925050606085013567ffffffffffffffff811115612d4657600080fd5b612d5287828801612a97565b91505092959194509250565b60008060408385031215612d7157600080fd5b6000612d7f858286016129ef565b9250506020612d9085828601612a58565b9150509250929050565b60008060408385031215612dad57600080fd5b6000612dbb858286016129ef565b9250506020612dcc85828601612aeb565b9150509250929050565b60008060408385031215612de957600080fd5b600083013567ffffffffffffffff811115612e0357600080fd5b612e0f85828601612a04565b925050602083013567ffffffffffffffff811115612e2c57600080fd5b612e3885828601612a2e565b9150509250929050565b600060208284031215612e5457600080fd5b6000612e6284828501612a6d565b91505092915050565b600060208284031215612e7d57600080fd5b6000612e8b84828501612a82565b91505092915050565b600060208284031215612ea657600080fd5b600082013567ffffffffffffffff811115612ec057600080fd5b612ecc84828501612ac1565b91505092915050565b600060208284031215612ee757600080fd5b6000612ef584828501612aeb565b91505092915050565b6000612f0a838361330d565b60408301905092915050565b6000612f22838361333c565b60208301905092915050565b612f37816139b1565b82525050565b612f46816139b1565b82525050565b6000612f5782613861565b612f6181856138a7565b9350612f6c83613841565b8060005b83811015612f9d578151612f848882612efe565b9750612f8f8361388d565b925050600181019050612f70565b5085935050505092915050565b6000612fb58261386c565b612fbf81856138b8565b9350612fca83613851565b8060005b83811015612ffb578151612fe28882612f16565b9750612fed8361389a565b925050600181019050612fce565b5085935050505092915050565b613011816139c3565b82525050565b600061302282613877565b61302c81856138c9565b935061303c818560208601613a34565b61304581613c22565b840191505092915050565b600061305b82613882565b61306581856138da565b9350613075818560208601613a34565b61307e81613c22565b840191505092915050565b600061309482613882565b61309e81856138eb565b93506130ae818560208601613a34565b80840191505092915050565b60006130c76034836138da565b91506130d282613c40565b604082019050919050565b60006130ea6028836138da565b91506130f582613c8f565b604082019050919050565b600061310d602b836138da565b915061311882613cde565b604082019050919050565b60006131306026836138da565b915061313b82613d2d565b604082019050919050565b6000613153602d836138da565b915061315e82613d7c565b604082019050919050565b60006131766029836138da565b915061318182613dcb565b604082019050919050565b60006131996025836138da565b91506131a482613e1a565b604082019050919050565b60006131bc6032836138da565b91506131c782613e69565b604082019050919050565b60006131df602a836138da565b91506131ea82613eb8565b604082019050919050565b60006132026005836138eb565b915061320d82613f07565b600582019050919050565b60006132256020836138da565b915061323082613f30565b602082019050919050565b60006132486028836138da565b915061325382613f59565b604082019050919050565b600061326b6015836138da565b915061327682613fa8565b602082019050919050565b600061328e6029836138da565b915061329982613fd1565b604082019050919050565b60006132b16029836138da565b91506132bc82614020565b604082019050919050565b60006132d46028836138da565b91506132df8261406f565b604082019050919050565b60006132f76021836138da565b9150613302826140be565b604082019050919050565b6040820160008201516133236000850182612f2e565b506020820151613336602085018261333c565b50505050565b61334581613a1b565b82525050565b61335481613a1b565b82525050565b60006133668285613089565b91506133728284613089565b915061337d826131f5565b91508190509392505050565b600060208201905061339e6000830184612f3d565b92915050565b600060a0820190506133b96000830188612f3d565b6133c66020830187612f3d565b81810360408301526133d88186612faa565b905081810360608301526133ec8185612faa565b905081810360808301526134008184613017565b90509695505050505050565b600060a0820190506134216000830188612f3d565b61342e6020830187612f3d565b61343b604083018661334b565b613448606083018561334b565b818103608083015261345a8184613017565b90509695505050505050565b600060208201905081810360008301526134808184612f4c565b905092915050565b600060208201905081810360008301526134a28184612faa565b905092915050565b600060408201905081810360008301526134c48185612faa565b905081810360208301526134d88184612faa565b90509392505050565b60006020820190506134f66000830184613008565b92915050565b600060208201905081810360008301526135168184613050565b905092915050565b60006020820190508181036000830152613537816130ba565b9050919050565b60006020820190508181036000830152613557816130dd565b9050919050565b6000602082019050818103600083015261357781613100565b9050919050565b6000602082019050818103600083015261359781613123565b9050919050565b600060208201905081810360008301526135b781613146565b9050919050565b600060208201905081810360008301526135d781613169565b9050919050565b600060208201905081810360008301526135f78161318c565b9050919050565b60006020820190508181036000830152613617816131af565b9050919050565b60006020820190508181036000830152613637816131d2565b9050919050565b6000602082019050818103600083015261365781613218565b9050919050565b600060208201905081810360008301526136778161323b565b9050919050565b600060208201905081810360008301526136978161325e565b9050919050565b600060208201905081810360008301526136b781613281565b9050919050565b600060208201905081810360008301526136d7816132a4565b9050919050565b600060208201905081810360008301526136f7816132c7565b9050919050565b60006020820190508181036000830152613717816132ea565b9050919050565b6000602082019050613733600083018461334b565b92915050565b600060408201905061374e600083018561334b565b61375b602083018461334b565b9392505050565b600061376c61377d565b90506137788282613a99565b919050565b6000604051905090565b600067ffffffffffffffff8211156137a2576137a1613bd1565b5b602082029050602081019050919050565b600067ffffffffffffffff8211156137ce576137cd613bd1565b5b602082029050602081019050919050565b600067ffffffffffffffff8211156137fa576137f9613bd1565b5b61380382613c22565b9050602081019050919050565b600067ffffffffffffffff82111561382b5761382a613bd1565b5b61383482613c22565b9050602081019050919050565b6000819050602082019050919050565b6000819050602082019050919050565b600081519050919050565b600081519050919050565b600081519050919050565b600081519050919050565b6000602082019050919050565b6000602082019050919050565b600082825260208201905092915050565b600082825260208201905092915050565b600082825260208201905092915050565b600082825260208201905092915050565b600081905092915050565b600061390182613a1b565b915061390c83613a1b565b9250827fffffffffffffffffffffffffffffffffffffffffffffffffffffffffffffffff0382111561394157613940613b44565b5b828201905092915050565b600061395782613a1b565b915061396283613a1b565b92508261397257613971613b73565b5b828204905092915050565b600061398882613a1b565b915061399383613a1b565b9250828210156139a6576139a5613b44565b5b828203905092915050565b60006139bc826139fb565b9050919050565b60008115159050919050565b60007fffffffff0000000000000000000000000000000000000000000000000000000082169050919050565b600073ffffffffffffffffffffffffffffffffffffffff82169050919050565b6000819050919050565b82818337600083830152505050565b60005b83811015613a52578082015181840152602081019050613a37565b83811115613a61576000848401525b50505050565b60006002820490506001821680613a7f57607f821691505b60208210811415613a9357613a92613ba2565b5b50919050565b613aa282613c22565b810181811067ffffffffffffffff82111715613ac157613ac0613bd1565b5b80604052505050565b6000613ad582613a1b565b91507fffffffffffffffffffffffffffffffffffffffffffffffffffffffffffffffff821415613b0857613b07613b44565b5b600182019050919050565b6000613b1e82613a1b565b9150613b2983613a1b565b925082613b3957613b38613b73565b5b828206905092915050565b7f4e487b7100000000000000000000000000000000000000000000000000000000600052601160045260246000fd5b7f4e487b7100000000000000000000000000000000000000000000000000000000600052601260045260246000fd5b7f4e487b7100000000000000000000000000000000000000000000000000000000600052602260045260246000fd5b7f4e487b7100000000000000000000000000000000000000000000000000000000600052604160045260246000fd5b600060033d1115613c1f5760046000803e613c1c600051613c33565b90505b90565b6000601f19601f8301169050919050565b60008160e01c9050919050565b7f455243313135353a207472616e7366657220746f206e6f6e204552433131353560008201527f526563656976657220696d706c656d656e746572000000000000000000000000602082015250565b7f455243313135353a204552433131353552656365697665722072656a6563746560008201527f6420746f6b656e73000000000000000000000000000000000000000000000000602082015250565b7f455243313135353a2062616c616e636520717565727920666f7220746865207a60008201527f65726f2061646472657373000000000000000000000000000000000000000000602082015250565b7f4f776e61626c653a206e6577206f776e657220697320746865207a65726f206160008201527f6464726573730000000000000000000000000000000000000000000000000000602082015250565b7f706c656173652073656e64206d6f7265207468616e20302e303120657468657260008201527f20746f20636f6e7469746e756500000000000000000000000000000000000000602082015250565b7f455243313135353a2063616c6c6572206973206e6f74206f776e6572206e6f7260008201527f20617070726f7665640000000000000000000000000000000000000000000000602082015250565b7f455243313135353a207472616e7366657220746f20746865207a65726f20616460008201527f6472657373000000000000000000000000000000000000000000000000000000602082015250565b7f455243313135353a207472616e736665722063616c6c6572206973206e6f742060008201527f6f776e6572206e6f7220617070726f7665640000000000000000000000000000602082015250565b7f455243313135353a20696e73756666696369656e742062616c616e636520666f60008201527f72207472616e7366657200000000000000000000000000000000000000000000602082015250565b7f2e6a736f6e000000000000000000000000000000000000000000000000000000600082015250565b7f4f776e61626c653a2063616c6c6572206973206e6f7420746865206f776e6572600082015250565b7f455243313135353a206275726e20616d6f756e74206578636565647320746f7460008201527f616c537570706c79000000000000000000000000000000000000000000000000602082015250565b7f555249204e4f4e4558495354454e5420544f4b454e0000000000000000000000600082015250565b7f455243313135353a2073657474696e6720617070726f76616c2073746174757360008201527f20666f722073656c660000000000000000000000000000000000000000000000602082015250565b7f455243313135353a206163636f756e747320616e6420696473206c656e67746860008201527f206d69736d617463680000000000000000000000000000000000000000000000602082015250565b7f455243313135353a2069647320616e6420616d6f756e7473206c656e6774682060008201527f6d69736d61746368000000000000000000000000000000000000000000000000602082015250565b7f455243313135353a206d696e7420746f20746865207a65726f2061646472657360008201527f7300000000000000000000000000000000000000000000000000000000000000602082015250565b600060443d101561411d576141a0565b61412561377d565b60043d036004823e80513d602482011167ffffffffffffffff8211171561414d5750506141a0565b808201805167ffffffffffffffff81111561416b57505050506141a0565b80602083010160043d0385018111156141885750505050506141a0565b61419782602001850186613a99565b82955050505050505b90565b6141ac816139b1565b81146141b757600080fd5b50565b6141c3816139c3565b81146141ce57600080fd5b50565b6141da816139cf565b81146141e557600080fd5b50565b6141f181613a1b565b81146141fc57600080fd5b5056fea2646970667358221220d622d474c5875c1a185a723bd228ffd8202d082d6e03dc7aaabc47bb6296464264736f6c63430008040033697066733a2f2f516d61696335684857745067364e58764a597858624c584e367a6578774e70394134326a367a53736551777151682f",
  "linkReferences": {},
  "deployedLinkReferences": {}
}